{
  "contractName": "Voting",
  "abi": [
    {
      "anonymous": false,
      "inputs": [
        {
          "name": "",
          "type": "uint256"
        }
      ],
      "name": "proposals",
      "type": "function",
      "constant": true,
      "outputs": [
        {
          "name": "totalVotes",
          "type": "uint256"
        },
        {
          "name": "quorum",
          "type": "uint256"
        },
        {
          "name": "yesVotes",
          "type": "uint256"
        },
        {
          "name": "noVotes",
          "type": "uint256"
        },
        {
          "name": "state",
          "type": "uint8"
        },
        {
          "name": "outcome",
          "type": "uint8"
        },
        {
          "name": "name",
          "type": "string"
        },
        {
          "name": "description",
          "type": "string"
        },
        {
          "name": "owner",
          "type": "address"
        },
        {
          "name": "TTL",
          "type": "uint256"
        },
        {
          "name": "usedByDate",
          "type": "uint256"
        }
      ],
      "payable": false,
      "stateMutability": "view"
    },
    {
      "anonymous": false,
      "inputs": [
        {
          "indexed": false,
          "name": "voter",
          "type": "uint256"
        },
        {
          "indexed": false,
          "name": "shares",
          "type": "uint8"
        },
        {
          "indexed": false,
          "name": "yesno",
          "type": "bool"
        }
      ],
      "name": "proposalId",
      "type": "function",
      "constant": true,
      "outputs": [
        {
          "name": "",
          "type": "uint256"
        }
      ],
      "payable": false,
      "stateMutability": "view"
    },
    {
      "constant": true,
      "inputs": [
        {
          "name": "shares",
          "type": "uint8"
        }
      ],
      "name": "numVoters",
      "outputs": [
        {
          "name": "",
          "type": "uint256"
        }
      ],
      "payable": false,
      "stateMutability": "view",
      "type": "function"
    },
    {
      "constant": true,
      "inputs": [
        {
          "name": "name",
          "type": "string"
        },
        {
          "name": "description",
          "type": "string"
        },
        {
          "name": "quorum",
          "type": "uint8"
        },
        {
          "name": "totalVotes",
          "type": "uint8"
        }
      ],
      "name": "uncastedVotes",
      "outputs": [
        {
          "name": "",
          "type": "uint256"
        }
      ],
      "payable": false,
      "stateMutability": "view",
      "type": "function"
    },
    {
      "constant": true,
      "inputs": [
        {
          "name": "",
          "type": "uint256"
        }
      ],
      "name": "voters",
      "outputs": [
        {
          "name": "voterAddress",
          "type": "address"
        },
        {
          "name": "shares",
          "type": "uint256"
        },
        {
          "name": "voted",
          "type": "bool"
        }
      ],
      "payable": false,
      "stateMutability": "view",
      "type": "function"
    },
    {
      "constant": false,
      "inputs": [
        {
          "name": "shares",
          "type": "uint8"
        }
      ],
      "name": "registerVoters",
      "outputs": [
        {
          "name": "",
          "type": "address"
        }
      ],
      "payable": true,
      "stateMutability": "payable",
      "type": "function"
    },
    {
      "constant": false,
      "inputs": [
        {
          "name": "name",
          "type": "string"
        },
        {
          "name": "description",
          "type": "string"
        },
        {
          "name": "quorum",
          "type": "uint8"
        },
        {
          "name": "TTL",
          "type": "uint256"
        }
      ],
      "name": "createNewProposal",
      "outputs": [
        {
          "name": "",
          "type": "string"
        }
      ],
      "payable": true,
      "stateMutability": "payable",
      "type": "function"
    },
    {
      "constant": false,
      "inputs": [
        {
          "name": "pId",
          "type": "uint256"
        }
      ],
      "name": "calculateTotalVotes",
      "outputs": [
        {
          "name": "",
          "type": "bool"
        }
      ],
      "payable": false,
      "stateMutability": "nonpayable",
      "type": "function"
    },
    {
      "constant": false,
      "inputs": [
        {
          "name": "vote",
          "type": "uint8"
        },
        {
          "name": "userId",
          "type": "uint256"
        },
        {
          "name": "pId",
          "type": "uint256"
        }
      ],
      "name": "castVoteForProposal",
      "outputs": [],
      "payable": false,
      "stateMutability": "nonpayable",
      "type": "function"
    },
    {
      "constant": false,
      "inputs": [
        {
          "name": "pId",
          "type": "uint256"
        }
      ],
      "name": "getOutcome",
      "outputs": [],
      "payable": false,
      "stateMutability": "nonpayable",
      "type": "function"
    },
    {
      "constant": false,
      "inputs": [
        {
          "name": "pId",
          "type": "uint256"
        }
      ],
      "name": "checkExpiry",
      "outputs": [
        {
          "name": "",
          "type": "bool"
        }
      ],
      "payable": false,
      "stateMutability": "nonpayable",
      "type": "function"
    },
    {
      "constant": false,
      "inputs": [
        {
          "name": "pId",
          "type": "uint256"
        }
      ],
      "name": "abort",
      "outputs": [],
      "payable": false,
      "stateMutability": "nonpayable",
      "type": "function"
    }
  ],
  "bytecode": "0x6080604052600080556000600255600060045534801561001e57600080fd5b5061174f8061002e6000396000f3fe6080604052600436106100b4576000357c010000000000000000000000000000000000000000000000000000000090048063013cf08b146100b957806321a00c64146102605780632dfca445146104425780634cbe32b81461046d5780637892663b14610498578063a392f129146104d3578063ad77ab8414610544578063b09aafd41461056f578063cd579335146105c1578063da58c7d9146105fc578063e4357cd714610689578063e50701f4146106dc575b600080fd5b3480156100c557600080fd5b506100f2600480360360208110156100dc57600080fd5b8101908080359060200190929190505050610717565b604051808c81526020018b81526020018a815260200189815260200188600481111561011a57fe5b60ff16815260200187600281111561012e57fe5b60ff16815260200180602001806020018673ffffffffffffffffffffffffffffffffffffffff1673ffffffffffffffffffffffffffffffffffffffff168152602001858152602001848152602001838103835288818151815260200191508051906020019080838360005b838110156101b4578082015181840152602081019050610199565b50505050905090810190601f1680156101e15780820380516001836020036101000a031916815260200191505b50838103825287818151815260200191508051906020019080838360005b8381101561021a5780820151818401526020810190506101ff565b50505050905090810190601f1680156102475780820380516001836020036101000a031916815260200191505b509d505050505050505050505050505060405180910390f35b6103c76004803603608081101561027657600080fd5b810190808035906020019064010000000081111561029357600080fd5b8201836020820111156102a557600080fd5b803590602001918460018302840111640100000000831117156102c757600080fd5b91908080601f016020809104026020016040519081016040528093929190818152602001838380828437600081840152601f19601f8201169050808301925050505050505091929192908035906020019064010000000081111561032a57600080fd5b82018360208201111561033c57600080fd5b8035906020019184600183028401116401000000008311171561035e57600080fd5b91908080601f016020809104026020016040519081016040528093929190818152602001838380828437600081840152601f19601f820116905080830192505050505050509192919290803560ff169060200190929190803590602001909291905050506108db565b6040518080602001828103825283818151815260200191508051906020019080838360005b838110156104075780820151818401526020810190506103ec565b50505050905090810190601f1680156104345780820380516001836020036101000a031916815260200191505b509250505060405180910390f35b34801561044e57600080fd5b50610457610b59565b6040518082815260200191505060405180910390f35b34801561047957600080fd5b50610482610b5f565b6040518082815260200191505060405180910390f35b3480156104a457600080fd5b506104d1600480360360208110156104bb57600080fd5b8101908080359060200190929190505050610b65565b005b610502600480360360208110156104e957600080fd5b81019080803560ff169060200190929190505050610bc8565b604051808273ffffffffffffffffffffffffffffffffffffffff1673ffffffffffffffffffffffffffffffffffffffff16815260200191505060405180910390f35b34801561055057600080fd5b50610559610d67565b6040518082815260200191505060405180910390f35b34801561057b57600080fd5b506105bf6004803603606081101561059257600080fd5b81019080803560ff1690602001909291908035906020019092919080359060200190929190505050610d6d565b005b3480156105cd57600080fd5b506105fa600480360360208110156105e457600080fd5b81019080803590602001909291905050506110d8565b005b34801561060857600080fd5b506106356004803603602081101561061f57600080fd5b81019080803590602001909291905050506113d6565b604051808473ffffffffffffffffffffffffffffffffffffffff1673ffffffffffffffffffffffffffffffffffffffff16815260200183815260200182151515158152602001935050505060405180910390f35b34801561069557600080fd5b506106c2600480360360208110156106ac57600080fd5b810190808035906020019092919050505061142d565b604051808215151515815260200191505060405180910390f35b3480156106e857600080fd5b50610715600480360360208110156106ff57600080fd5b8101908080359060200190929190505050611498565b005b60036020528060005260406000206000915090508060000154908060010154908060020154908060030154908060040160009054906101000a900460ff16908060040160019054906101000a900460ff1690806005018054600181600116156101000203166002900480601f0160208091040260200160405190810160405280929190818152602001828054600181600116156101000203166002900480156108015780601f106107d657610100808354040283529160200191610801565b820191906000526020600020905b8154815290600101906020018083116107e457829003601f168201915b505050505090806006018054600181600116156101000203166002900480601f01602080910402602001604051908101604052809291908181526020018280546001816001161561010002031660029004801561089f5780601f106108745761010080835404028352916020019161089f565b820191906000526020600020905b81548152906001019060200180831161088257829003601f168201915b5050505050908060070160009054906101000a900473ffffffffffffffffffffffffffffffffffffffff1690806008015490806009015490508b565b6060662386f26fc1000034111515610981576040517f08c379a00000000000000000000000000000000000000000000000000000000081526004018080602001828103825260348152602001807f6174206c6561737420302e303120455448206973206e656564656420746f206381526020017f72656174652061206e65772070726f70736f616c00000000000000000000000081525060400191505060405180910390fd5b6109896115bd565b61016060405190810160405280600081526020018560ff1681526020016000815260200160008152602001600260048111156109c157fe5b8152602001600060028111156109d357fe5b81526020018781526020018681526020013373ffffffffffffffffffffffffffffffffffffffff168152602001848152602001844201815250905060006002600081548092919060010191905055905081600360008381526020019081526020016000206000820151816000015560208201518160010155604082015181600201556060820151816003015560808201518160040160006101000a81548160ff02191690836004811115610a8357fe5b021790555060a08201518160040160016101000a81548160ff02191690836002811115610aac57fe5b021790555060c0820151816005019080519060200190610acd929190611644565b5060e0820151816006019080519060200190610aea929190611644565b506101008201518160070160006101000a81548173ffffffffffffffffffffffffffffffffffffffff021916908373ffffffffffffffffffffffffffffffffffffffff160217905550610120820151816008015561014082015181600901559050508692505050949350505050565b60025481565b60005481565b600080905060008090505b6000548160ff161015610ba857600160008260ff16815260200190815260200160002060010154820191508080600101915050610b70565b508060036000848152602001908152602001600020600001819055505050565b6000808260ff16111515610bdb57600080fd5b662386f26fc1000034111515610c7f576040517f08c379a00000000000000000000000000000000000000000000000000000000081526004018080602001828103825260318152602001807f6174206c6561737420302e303120455448206973206e656564656420746f207281526020017f656769737465726564206120766f74657200000000000000000000000000000081525060400191505060405180910390fd5b610c876116c4565b6060604051908101604052803373ffffffffffffffffffffffffffffffffffffffff1681526020018460ff1681526020016000151581525090506000806000815480929190600101919050559050816001600083815260200190815260200160002060008201518160000160006101000a81548173ffffffffffffffffffffffffffffffffffffffff021916908373ffffffffffffffffffffffffffffffffffffffff1602179055506020820151816001015560408201518160020160006101000a81548160ff0219169083151502179055509050503392505050919050565b60045481565b60011515610d7a8261142d565b151514151515610df2576040517f08c379a000000000000000000000000000000000000000000000000000000000815260040180806020018281038252601d8152602001807f50726f706f73616c20457870697265642063616e6e6f7420766f74652100000081525060200191505060405180910390fd5b60016004811115610dff57fe5b6003600083815260200190815260200160002060040160009054906101000a900460ff166004811115610e2e57fe5b14151515610eca576040517f08c379a00000000000000000000000000000000000000000000000000000000081526004018080602001828103825260268152602001807f50726f706f73616c20686173206265656e2061626f727465642063616e6e6f7481526020017f20766f746521000000000000000000000000000000000000000000000000000081525060400191505060405180910390fd5b600115156001600084815260200190815260200160002060020160009054906101000a900460ff16151514151515610f6a576040517f08c379a00000000000000000000000000000000000000000000000000000000081526004018080602001828103825260138152602001807f7573657220766f74656420616c7265616479210000000000000000000000000081525060200191505060405180910390fd5b8260ff16600160008481526020019081526020016000206001015410158015610fac575060016000838152602001908152602001600020600101548360ff1611155b1515611046576040517f08c379a00000000000000000000000000000000000000000000000000000000081526004018080602001828103825260298152602001807f757365722063617374656420766f746573206d6f7265207468616e207768617481526020017f206865206f776e7321000000000000000000000000000000000000000000000081525060400191505060405180910390fd5b6001600083815260200190815260200160002060020160009054906101000a900460ff1615156110d357600180600084815260200190815260200160002060020160006101000a81548160ff02191690831515021790555060008360ff1611156110d2578260ff1660036000838152602001908152602001600020600201600082825401925050819055505b5b505050565b600115156110e58261142d565b151514151515611183576040517f08c379a00000000000000000000000000000000000000000000000000000000081526004018080602001828103825260248152602001807f50726f706f73616c20457870697265642063616e6e6f7420676574206f75746381526020017f6f6d65210000000000000000000000000000000000000000000000000000000081525060400191505060405180910390fd5b6001600481111561119057fe5b6003600083815260200190815260200160002060040160009054906101000a900460ff1660048111156111bf57fe5b1415151561125b576040517f08c379a00000000000000000000000000000000000000000000000000000000081526004018080602001828103825260268152602001807f50726f706f73616c20686173206265656e2061626f727465642063616e6e6f7481526020017f20766f746521000000000000000000000000000000000000000000000000000081525060400191505060405180910390fd5b600060646003600084815260200190815260200160002060010154606481151561128157fe5b040290506000600360008481526020019081526020016000206000015490506000606483838115156112af57fe5b04029050600060646003600087815260200190815260200160002060020154029050600360008681526020019081526020016000206002015460036000878152602001908152602001600020600001540360036000878152602001908152602001600020600301819055508181111561135f5760016003600087815260200190815260200160002060040160016101000a81548160ff0219169083600281111561135557fe5b0217905550611398565b60026003600087815260200190815260200160002060040160016101000a81548160ff0219169083600281111561139257fe5b02179055505b600380600087815260200190815260200160002060040160006101000a81548160ff021916908360048111156113ca57fe5b02179055505050505050565b60016020528060005260406000206000915090508060000160009054906101000a900473ffffffffffffffffffffffffffffffffffffffff16908060010154908060020160009054906101000a900460ff16905083565b60008060009050600360008481526020019081526020016000206009015442111561148f576001905060046003600085815260200190815260200160002060040160006101000a81548160ff0219169083600481111561148957fe5b02179055505b80915050919050565b600360048111156114a557fe5b6003600083815260200190815260200160002060040160009054906101000a900460ff1660048111156114d457fe5b1415151561154a576040517f08c379a000000000000000000000000000000000000000000000000000000000815260040180806020018281038252601d8152602001807f43616e6e6f742061626f727420636f6d706c6574656420766f74696e6700000081525060200191505060405180910390fd5b60016003600083815260200190815260200160002060040160006101000a81548160ff0219169083600481111561157d57fe5b021790555060006003600083815260200190815260200160002060040160016101000a81548160ff021916908360028111156115b557fe5b021790555050565b6101606040519081016040528060008152602001600081526020016000815260200160008152602001600060048111156115f357fe5b81526020016000600281111561160557fe5b81526020016060815260200160608152602001600073ffffffffffffffffffffffffffffffffffffffff16815260200160008152602001600081525090565b828054600181600116156101000203166002900490600052602060002090601f016020900481019282601f1061168557805160ff19168380011785556116b3565b828001600101855582156116b3579182015b828111156116b2578251825591602001919060010190611697565b5b5090506116c091906116fe565b5090565b606060405190810160405280600073ffffffffffffffffffffffffffffffffffffffff168152602001600081526020016000151581525090565b61172091905b8082111561171c576000816000905550600101611704565b5090565b9056fea165627a7a7230582038c2ea899e659ff9c63a94aa60e2657e43514399ecbcaa7304d136092f5d7c030029",
  "source": "pragma solidity ^0.5.0;\r\n\r\n/// #sol : Voting.sol\r\n/// SMUBC2019 : SMU Certified Blockchain Developer 2019\r\n/// Smart contract project : Voting System\r\n/// By Team 1: Darryl, Po Jid, Yong Xian\r\n/// All Rights Reserved, 27 May 2019\r\n//Date are stored in the Unix epoch format (timestamp) \r\n//which consists in an integer of the number of seconds since 1970-01-01.\r\n/*\r\n1) Able to Register Voters (Those that are voting for the proposal)\r\n2) Create a new proposals\r\n3) Calculate outcome of proposal base on 2 decimal points\r\n4) Calculate Expiry data based on TTL NOTE: Maybe do not need usedByDate since proposal expired based on TTL\r\n1 hour = 36000 seconds\r\n*/\r\n    \r\ncontract Voting {\r\n\r\n\r\n    enum State {\r\n        READY,      // beginVoting() called, Ready to accept votes\r\n        ABORTED,    // abort() called, Voting aborted\r\n        WAIT,       // newProposal() called, Prepare for voting\r\n        COMPLETED,  // Voting is completed\r\n        EXPIRED     // pre-set voting period have reached\r\n    } \r\n    \r\n    enum Outcome {\r\n        PENDING,       // no outcome yet\r\n        PASSED,     // we reached decision, proposal accepted and passed\r\n        DEFEATED    // we reached decision, proposal is rejected / defeated\r\n    }\r\n\r\n    // Table of all registered voters, voter must call registerMe()\r\n    struct voter {\r\n        address voterAddress;  // voter address\r\n        uint256  shares;  // number of share a voter has, 1 share = 1 vote\r\n        bool voted;     // true if already voted\r\n    }\r\n    uint256 public numVoters = 0;\r\n    mapping(uint256 => voter) public voters;\r\n   \r\n    \r\n    \r\n    struct proposal {\r\n        uint256 totalVotes;             // total available votes (shares) = sum(shares) of all voters\r\n        uint256 quorum;                 // minimum quorum (in %) of YES votes needed to pass resolution\r\n        uint256 yesVotes;               // Total number of YES votes\r\n        uint256 noVotes;                // Total number of NO votes\r\n        State state;                // Current state of voting\r\n        Outcome  outcome;           // Final resulution : PASSED or DEFEATED\r\n        string name;                // Nme of Proposal\r\n        string description;         // Brief description of this proposal\r\n        address owner;\r\n        uint256 TTL;                  // Time-to-live in days, set in newProposal()\r\n        uint256 usedByDate;            // value set in beginVoting(), voting ceases beyond this date\r\n    }\r\n     uint256 public proposalId = 0;\r\n     mapping(uint256 => proposal) public proposals;\r\n\r\n    \r\n    //register Voters. Must be done before creation of proposals\r\n    function registerVoters(uint8 shares) public payable returns (address){\r\n        require(shares >0);\r\n        require(msg.value > 0.01 ether, \"at least 0.01 ETH is needed to registered a voter\");\r\n        \r\n        // new voter object\r\n        voter memory newVoter =voter (\r\n            msg.sender,\r\n            shares,\r\n            false\r\n        );\r\n        uint256 newVoterId = numVoters++;\r\n        voters[newVoterId] = newVoter;\r\n        return msg.sender;\r\n    }\r\n    \r\n    // setup new voting : Administrator create new voting call\r\n    // Setup proposal, ready for voting\r\n    // ~~~~~~~~~~~~~~~~~~~~~~~~~~~~~~~~~~~~~~~~~~~~~~~~~~~~~~~~~~\r\n\r\n    function createNewProposal(\r\n            string memory name,         // Proposal name, like \"HELIPAD\"\r\n            string memory  description,  // , like \"Proposal to build helicopter land pad\"\r\n            uint8   quorum,             // minimum supporting vote to pass resolution\r\n            //uint8   totalVotes,         // sum of legal votes of all voters, like 100 people total 160 votes as some voters has more votes\r\n            uint256  TTL                 // Time to live in days, from beginVoting()\r\n            //uint256 usedByDate\r\n    ) public payable returns(string memory) {\r\n        ///values must be set when beginVoting() is called\r\n        require(msg.value > 0.01 ether, \"at least 0.01 ETH is needed to create a new propsoal\");\r\n        //new proposal object\r\n        proposal memory newProposal = proposal (\r\n        0,          // total available votes (shares) = sum(shares) of all voters\r\n        quorum,                 // minimum quorum (in %) of YES votes needed to pass resolution\r\n        0,              // Total number of YES votes\r\n        0,              // Total number of NO votes\r\n        State.WAIT,             // Current state of voting\r\n        Outcome.PENDING,            // Final resulution : PASSED or DEFEATED\r\n        name,                // Nme of Proposal\r\n        description,         // Brief description of this proposal\r\n        msg.sender,\r\n        TTL,                  // Time-to-live in days, set in newProposal()\r\n        block.timestamp+TTL\r\n       );\r\n        uint256 newProposalId = proposalId++;\r\n        proposals[newProposalId] = newProposal;\r\n        \r\n        return name;\r\n    }\r\n    //Calculate total votes holds by all the voters\r\n    function calculateTotalVotes(uint256 pId) public  {\r\n        uint totalvotes=0;\r\n        for (uint8 i = 0 ; i< numVoters; i++){\r\n            \r\n            totalvotes+=voters[i].shares;\r\n        }\r\n        proposals[pId].totalVotes= totalvotes;\r\n    }\r\n    \r\n    uint256 public uncastedVotes=0;\r\n    //Cast vote based on id of user starting from 0. Each id tag to a voter address\r\n    function castVoteForProposal(uint8 vote,uint256 userId ,uint256 pId)public{\r\n        //require(vote > 0 ,\"vote cannot be equal to 0 or less!\");\r\n      require(checkExpiry(pId)!= true,\"Proposal Expired cannot vote!\");\r\n      require(proposals[pId].state != State.ABORTED, \"Proposal has been aborted cannot vote!\");\r\n      require(voters[userId].voted!=true, \"user voted already!\" );\r\n      require(voters[userId].shares>= vote && vote<= voters[userId].shares,\"user casted votes more than what he owns!\");\r\n      if(!voters[userId].voted){ \r\n        voters[userId].voted = true;\r\n        if(vote > 0){\r\n            proposals[pId].yesVotes+=vote;\r\n        }\r\n        }\r\n    }\r\n    \r\n    //Edited here\r\n    //CALCULATE THE OUTCOME OF THE VOTING\r\n    function getOutcome(uint256 pId) public {\r\n       // require(proposalToVote.state==State.COMPLETED, \"Outcome meaningless\");\r\n        require(checkExpiry(pId)!=true,\"Proposal Expired cannot get outcome!\");\r\n        require(proposals[pId].state != State.ABORTED, \"Proposal has been aborted cannot vote!\");\r\n        uint256 quorum = (100 / proposals[pId].quorum) *100;// if 80% = 125 (1.25)\r\n        //qurom is in percentage\r\n        uint256 totalVotes = proposals[pId].totalVotes;\r\n        uint256 requiredVotes = (totalVotes / quorum)* 100; //if total votes is 16, 80% is 12.8\r\n        uint castedVotes = proposals[pId].yesVotes * 100;\r\n        \r\n        //calculate uncasted votes\r\n        proposals[pId].noVotes = proposals[pId].totalVotes - proposals[pId].yesVotes;\r\n        \r\n        if(castedVotes > requiredVotes){\r\n            proposals[pId].outcome= Outcome.PASSED;\r\n          \r\n        }else{\r\n            proposals[pId].outcome = Outcome.DEFEATED;\r\n        }\r\n          proposals[pId].state= State.COMPLETED;\r\n    }\r\n    \r\n    \r\n    // Check used-by-date, set voting state accordingly\r\n    function checkExpiry(uint256 pId) public returns (bool) {\r\n        bool expired = false;\r\n        if (now > proposals[pId].usedByDate){\r\n            expired = true;\r\n            proposals[pId].state=State.EXPIRED;\r\n            //VotingIsOver();\r\n        }\r\n        return expired;\r\n    }\r\n    \r\n    // abort voting : Administrator call  abort, or perhaps we reached used-by-date and nobody ever voted\r\n    // ~~~~~~~~~~~~~~~~~~~~~~~~~~~~~~~~~~~~~~~~~~~~~~~~~~~~~~~~~~~~~~~~~~~~~~~~~~~~~~~~~~~~~~~~~~~~~\r\n    function abort(uint256 pId) public {\r\n        require(proposals[pId].state != State.COMPLETED, \"Cannot abort completed voting\"); // can't abort completed voting\r\n        proposals[pId].state=State.ABORTED;\r\n        proposals[pId].outcome=Outcome.PENDING;\r\n    }\r\n\r\n    }\r\n\r\n\r\n\r\n",
  "sourcePath": "C:/space/SMUCBDTeam1/contracts/Voting.sol",
  "compiler": {
    "name": "solc",
    "version": "0.5.1+commit.c8a2cb62.Emscripten.clang"
  },
  "schemaVersion": "3.0.9",
  "updatedAt": "2019-06-01T18:23:05.698Z",
  "devdoc": {
    "methods": {}
  },
  "userdoc": {
    "methods": {},
    "notice": "All Rights Reserved, 27 May 2019"
  }
}