{
  "contractName": "Voting",
  "abi": [
    {
      "anonymous": false,
      "inputs": [],
      "name": "VotingExpired",
      "type": "event"
    },
    {
      "anonymous": false,
      "inputs": [
        {
          "indexed": false,
          "name": "voter",
          "type": "uint256"
        },
        {
          "indexed": false,
          "name": "shares",
          "type": "uint8"
        },
        {
          "indexed": false,
          "name": "yesno",
          "type": "bool"
        }
      ],
      "name": "NewVoteReceived",
      "type": "event"
    },
    {
      "constant": false,
      "inputs": [
        {
          "name": "shares",
          "type": "uint8"
        }
      ],
      "name": "registerMe",
      "outputs": [],
      "payable": false,
      "stateMutability": "nonpayable",
      "type": "function"
    },
    {
      "constant": false,
      "inputs": [
        {
          "name": "name",
          "type": "string"
        },
        {
          "name": "description",
          "type": "string"
        },
        {
          "name": "quorum",
          "type": "uint8"
        },
        {
          "name": "totalVotes",
          "type": "uint8"
        }
      ],
      "name": "newProposal",
      "outputs": [],
      "payable": false,
      "stateMutability": "nonpayable",
      "type": "function"
    },
    {
      "constant": false,
      "inputs": [],
      "name": "beginVoting",
      "outputs": [],
      "payable": false,
      "stateMutability": "nonpayable",
      "type": "function"
    },
    {
      "constant": false,
      "inputs": [],
      "name": "abort",
      "outputs": [],
      "payable": false,
      "stateMutability": "nonpayable",
      "type": "function"
    },
    {
      "constant": false,
      "inputs": [],
      "name": "expired",
      "outputs": [],
      "payable": false,
      "stateMutability": "nonpayable",
      "type": "function"
    },
    {
      "constant": false,
      "inputs": [
        {
          "name": "accept",
          "type": "bool"
        }
      ],
      "name": "newVote",
      "outputs": [
        {
          "name": "",
          "type": "bool"
        }
      ],
      "payable": true,
      "stateMutability": "payable",
      "type": "function"
    }
  ],
  "bytecode": "0x60806040526000600160006101000a81548160ff021916908360ff16021790555061014060405190810160405280600060ff168152602001600060ff168152602001600060ff168152602001600060ff168152602001600260048111156200006357fe5b8152602001600060028111156200007657fe5b81526020016040805190810160405280600181526020017f2d0000000000000000000000000000000000000000000000000000000000000081525081526020016040805190810160405280600181526020017f2d000000000000000000000000000000000000000000000000000000000000008152508152602001600060ff1681526020013373ffffffffffffffffffffffffffffffffffffffff16815250600260008201518160000160006101000a81548160ff021916908360ff16021790555060208201518160000160016101000a81548160ff021916908360ff16021790555060408201518160000160026101000a81548160ff021916908360ff16021790555060608201518160000160036101000a81548160ff021916908360ff16021790555060808201518160000160046101000a81548160ff02191690836004811115620001c057fe5b021790555060a08201518160000160056101000a81548160ff02191690836002811115620001ea57fe5b021790555060c08201518160010190805190602001906200020d929190620002ad565b5060e08201518160020190805190602001906200022c929190620002ad565b506101008201518160030160006101000a81548160ff021916908360ff1602179055506101208201518160030160016101000a81548173ffffffffffffffffffffffffffffffffffffffff021916908373ffffffffffffffffffffffffffffffffffffffff1602179055505050348015620002a657600080fd5b506200035c565b828054600181600116156101000203166002900490600052602060002090601f016020900481019282601f10620002f057805160ff191683800117855562000321565b8280016001018555821562000321579182015b828111156200032057825182559160200191906001019062000303565b5b50905062000330919062000334565b5090565b6200035991905b80821115620003555760008160009055506001016200033b565b5090565b90565b610cec806200036c6000396000f3fe608060405260043610610072576000357c01000000000000000000000000000000000000000000000000000000009004806335a063b4146100775780634c2067c71461008e578063ab54a56d146100a5578063adc65c381461021e578063b830a3bc1461025c578063f9ef7cb414610273575b600080fd5b34801561008357600080fd5b5061008c6102bb565b005b34801561009a57600080fd5b506100a3610343565b005b3480156100b157600080fd5b5061021c600480360360808110156100c857600080fd5b81019080803590602001906401000000008111156100e557600080fd5b8201836020820111156100f757600080fd5b8035906020019184600183028401116401000000008311171561011957600080fd5b91908080601f016020809104026020016040519081016040528093929190818152602001838380828437600081840152601f19601f8201169050808301925050505050505091929192908035906020019064010000000081111561017c57600080fd5b82018360208201111561018e57600080fd5b803590602001918460018302840111640100000000831117156101b057600080fd5b91908080601f016020809104026020016040519081016040528093929190818152602001838380828437600081840152601f19601f820116905080830192505050505050509192919290803560ff169060200190929190803560ff1690602001909291905050506104d0565b005b34801561022a57600080fd5b5061025a6004803603602081101561024157600080fd5b81019080803560ff169060200190929190505050610589565b005b34801561026857600080fd5b50610271610747565b005b6102a16004803603602081101561028957600080fd5b810190808035151590602001909291905050506107ec565b604051808215151515815260200191505060405180910390f35b600360048111156102c857fe5b600260000160049054906101000a900460ff1660048111156102e657fe5b141515156102f357600080fd5b6001600260000160046101000a81548160ff0219169083600481111561031557fe5b02179055506000600260000160056101000a81548160ff0219169083600281111561033c57fe5b0217905550565b6000600260000160029054906101000a900460ff1660ff1614801561037d57506000600260000160039054906101000a900460ff1660ff16145b156103d4576001600260000160046101000a81548160ff021916908360048111156103a457fe5b021790555060028060000160056101000a81548160ff021916908360028111156103ca57fe5b02179055506104ce565b600260000160019054906101000a900460ff1660ff166064600260000160009054906101000a900460ff1660ff16600260000160029054906101000a900460ff1660ff1681151561042157fe5b040260ff16111561047f576003600260000160046101000a81548160ff0219169083600481111561044e57fe5b02179055506001600260000160056101000a81548160ff0219169083600281111561047557fe5b02179055506104cd565b6003600260000160046101000a81548160ff021916908360048111156104a157fe5b021790555060028060000160056101000a81548160ff021916908360028111156104c757fe5b02179055505b5b565b80600260000160006101000a81548160ff021916908360ff16021790555081600260000160016101000a81548160ff021916908360ff1602179055508360026001019080519060200190610525929190610c1b565b508260028001908051906020019061053e929190610c1b565b5033600260030160016101000a81548173ffffffffffffffffffffffffffffffffffffffff021916908373ffffffffffffffffffffffffffffffffffffffff16021790555050505050565b60008160ff161180156105ca5750600260000160019054906101000a900460ff16600260000160009054906101000a900460ff160260ff166064820260ff16105b15156105d557600080fd5b600260048111156105e257fe5b600260000160049054906101000a900460ff16600481111561060057fe5b14151561060c57600080fd5b336000600260030160009054906101000a900460ff1660ff1681548110151561063157fe5b9060005260206000200160000160006101000a81548173ffffffffffffffffffffffffffffffffffffffff021916908373ffffffffffffffffffffffffffffffffffffffff160217905550806000600260030160009054906101000a900460ff1660ff168154811015156106a157fe5b9060005260206000200160000160146101000a81548160ff021916908360ff160217905550600080600260030160009054906101000a900460ff1660ff168154811015156106eb57fe5b9060005260206000200160000160156101000a81548160ff0219169083151502179055506002600301600081819054906101000a900460ff168092919060010191906101000a81548160ff021916908360ff1602179055505050565b6002600481111561075457fe5b600260000160049054906101000a900460ff16600481111561077257fe5b14151561077e57600080fd5b6003600260030160009054906101000a900460ff1660ff161180156107b857506000600260000160009054906101000a900460ff1660ff16145b15156107c357600080fd5b6000600260000160046101000a81548160ff021916908360048111156107e557fe5b0217905550565b6000806107f83361098d565b60ff1611151561080757600080fd5b61081033610aab565b151561081b57600080fd5b6000600481111561082857fe5b600260000160049054906101000a900460ff16600481111561084657fe5b14151561085257600080fd5b6000809050821561089e576108663361098d565b600260000160028282829054906101000a900460ff160192506101000a81548160ff021916908360ff160217905550600190506108db565b6108a73361098d565b600260000160038282829054906101000a900460ff160192506101000a81548160ff021916908360ff160217905550600190505b600260000160019054906101000a900460ff1660ff16600260000160009054906101000a900460ff1660ff16600260000160029054906101000a900460ff1660ff1681151561092657fe5b0460640260ff16101515610960576001600260000160056101000a81548160ff0219169083600281111561095657fe5b0217905550610987565b60028060000160056101000a81548160ff0219169083600281111561098157fe5b02179055505b50919050565b600080600090505b600260030160009054906101000a900460ff1660ff168160ff161015610aa05760008160ff168154811015156109c757fe5b9060005260206000200160000160159054906101000a900460ff16158015610a5957508273ffffffffffffffffffffffffffffffffffffffff1660008260ff16815481101515610a1357fe5b9060005260206000200160000160009054906101000a900473ffffffffffffffffffffffffffffffffffffffff1673ffffffffffffffffffffffffffffffffffffffff16145b15610a935760008160ff16815481101515610a7057fe5b9060005260206000200160000160149054906101000a900460ff16915050610aa6565b8080600101915050610995565b60009150505b919050565b60008060009050600080905060008090505b600260030160009054906101000a900460ff1660ff168360ff161015610be2578473ffffffffffffffffffffffffffffffffffffffff1660008460ff16815481101515610b0657fe5b9060005260206000200160000160009054906101000a900473ffffffffffffffffffffffffffffffffffffffff1673ffffffffffffffffffffffffffffffffffffffff161415610bd55760008360ff16815481101515610b6257fe5b9060005260206000200160000160159054906101000a900460ff1615610b8f576001915060009050610bd0565b600160008460ff16815481101515610ba357fe5b9060005260206000200160000160156101000a81548160ff02191690831515021790555060009150600190505b610be2565b8280600101935050610abd565b811515610c1057600260030160009054906101000a900460ff1660ff168360ff16101515610c0f57600090505b5b809350505050919050565b828054600181600116156101000203166002900490600052602060002090601f016020900481019282601f10610c5c57805160ff1916838001178555610c8a565b82800160010185558215610c8a579182015b82811115610c89578251825591602001919060010190610c6e565b5b509050610c979190610c9b565b5090565b610cbd91905b80821115610cb9576000816000905550600101610ca1565b5090565b9056fea165627a7a723058208e6987a72870462b3d45a7bae6c6c9d20c8cc9f59587d17fd0613c5b708669760029",
  "source": "/// #sol : Voting.sol\r\n/// SMUBC2019 : SMU Certified Blockchain Developer 2019\r\n/// Smart contract project : Voting System\r\n/// By Team 1: Darryl, Po Jid, Yong Xian\r\n/// All Rights Reserved, 27 May 2019\r\n\r\npragma solidity 0.5.1;\r\n\r\n\r\n\r\n    \r\ncontract Voting {\r\n\r\n\r\n    enum State {\r\n        READY,      // beginVoting() called, Ready to accept votes\r\n        ABORTED,    // abort() called, Voting aborted\r\n        WAIT,       // newProposal() called, Prepare for voting\r\n        COMPLETED,  // Voting is completed\r\n        EXPIRED     // pre-set voting period have reached\r\n    } \r\n    \r\n    enum Outcome {\r\n        NONE,       // no outcome yet\r\n        PASSED,     // we reached decision, proposal accepted and passed\r\n        DEFEATED    // we reached decision, proposal is rejected / defeated\r\n    }\r\n\r\n    struct Proposal {\r\n        uint8 totalVotes; \t        // total available votes (shares) = sum(shares) of all voters\r\n        uint8 quorum;  \t            // minimum quorum (in %) of YES votes needed to pass resolution\r\n        uint8 yesVotes;\t\t        // Total number of YES votes\r\n        uint8 noVotes;\t\t        // Total number of NO votes\r\n        State state;\t            // Current state of voting\r\n        Outcome  outcome;\t        // Final resulution : PASSED or DEFEATED\r\n        string name;                // Nme of Proposal\r\n        string description;         // Brief description of this proposal\r\n        uint8  registeredVoters;    // Total number of voters registered to vote\r\n        address owner;\r\n \r\n    }\r\n\r\n    struct Voter {\r\n        address voter;  // voter address\r\n        uint8  shares;  // number of share a voter has, 1 share = 1 vote\r\n        bool voted;     // true if already voted\r\n    }\r\n\r\n    event VotingExpired();\r\n    event NewVoteReceived(uint256 voter, uint8 shares, bool yesno);\r\n\r\n\r\n    Voter[] votersRegister;\r\n    uint8 totalVoters=0;\r\n    uint8 index;\r\n    \r\n    function getShares(address voter) private returns(uint8) {\r\n        uint8 k=0;\r\n\r\n        while (k<proposalToVote.registeredVoters){\r\n            if (!votersRegister[k].voted && votersRegister[k].voter==voter) {\r\n                return votersRegister[k].shares;\r\n            }\r\n            k++;\r\n        }\r\n        \r\n        return 0;\r\n    } \r\n    \r\n    // Return true if voter voted before\r\n    function acceptVote(address voter) private returns(bool) {\r\n        uint8 k=0;\r\n        bool voted=false;\r\n        bool allow=false;\r\n\r\n        // Check if voter have voted before\r\n        while (k<proposalToVote.registeredVoters){\r\n            if (votersRegister[k].voter==voter) {\r\n                if (votersRegister[k].voted){\r\n                    // voter found, but had voted before\r\n                    voted=true;\r\n                    allow=false;\r\n                }\r\n                else {\r\n                    // voter found, but never voted, so record this vote\r\n                    votersRegister[k].voted=true;\r\n                    voted=false; \r\n                    allow=true;\r\n                }\r\n                break;\r\n            }\r\n            k++;\r\n        }\r\n        \r\n        \r\n        if (! voted ){\r\n            if (k>=proposalToVote.registeredVoters){\r\n                // No vote record found, but voter not registered\r\n                allow=false;\r\n            }\r\n        }\r\n        \r\n        return allow;\r\n    } \r\n    \r\n    \r\n    \r\n    ///values must be set when beginVoting() is called\r\n    Proposal proposalToVote = Proposal (\r\n        0,     // total available votes if all voter voted\r\n        0,  \t    // minimum quorum (in %) of YES votes needed to pass resolution\r\n        0,\t            // Total number of YES votes\r\n        0,\t            // Total number of NO votes\r\n        State.WAIT,\t        // Current state of voting\r\n        Outcome.NONE,\t        // outcome : PASSED or DEFEATED\r\n        \"-\",           // Name of proposal\r\n        \"-\",    // Brief description of proposal\r\n        0,              // total voters have registered\r\n        msg.sender      // owner=msg.sender, should be administrator's address\r\n\r\n    );\r\n    \r\n //   uint256 public numDices = 0;\r\n  //  mapping(uint256 => dice) public dices;\r\n\r\n    // voter registration\r\n    // Eligible voter must register intend to vote\r\n    function registerMe(uint8 shares) public {\r\n        // voter must have at least 1 share to voter\r\n        // Its meaningless to vote if 1 voter have shares > quorum\r\n        // quorum is in %\r\n        require(shares>0 && shares*100 < proposalToVote.totalVotes*proposalToVote.quorum);\r\n        \r\n        // voting must already been setup, waiting for registration\r\n        require(proposalToVote.state == State.WAIT);\r\n        \r\n        votersRegister[proposalToVote.registeredVoters].voter=msg.sender; // We store voter's address for matching later\r\n        votersRegister[proposalToVote.registeredVoters].shares=shares;     // we store number of shares (votes) this voter has\r\n        votersRegister[proposalToVote.registeredVoters].voted=false;      // \r\n        proposalToVote.registeredVoters++;\r\n        \r\n    } \r\n\r\n\r\n    // setup new voting : Administrator create new voting call\r\n    // Setup proposal, ready for voting\r\n    // ~~~~~~~~~~~~~~~~~~~~~~~~~~~~~~~~~~~~~~~~~~~~~~~~~~~~~~~~~~\r\n    function newProposal(\r\n            string memory name, // Proposal name, like \"HELIPAD\"\r\n            string memory description, // , like \"Proposal to build helicopter land pad\"\r\n            uint8   quorum, // minimum supporting vote to pass resolution\r\n            uint8   totalVotes // sum of legal votes of all voters, like 100 people total 160 votes as some voters has more votes\r\n\t) public {\r\n\t    \r\n\t    ///values must be set when beginVoting() is called\r\n\t    proposalToVote.totalVotes=totalVotes;\r\n\t    proposalToVote.quorum=quorum;\r\n\t    proposalToVote.name=name;\r\n\t    proposalToVote.description=description;\r\n\t    proposalToVote.owner=msg.sender;\r\n\r\n    }\r\n\r\n    // start voting process\r\n    function beginVoting() public {\r\n        require(proposalToVote.state == State.WAIT); // must be in WAIT state first\r\n        require(proposalToVote.registeredVoters>3 && proposalToVote.totalVotes==0);// cant vote if less than 3 voters\r\n        \r\n        proposalToVote.state = State.READY;\r\n    }\r\n\r\n\r\n    // abort voting : Administrator call  abort, or nobody voted beyond expiry\r\n    // ~~~~~~~~~~~~~~~~~~~~~~~~~~~~~~~~~~~~~~~~~~~~~~~~~~~~~~~~~~~~~~~~~~~~~~~~~~~~~\r\n    function abort() public {\r\n        require(proposalToVote.state != State.COMPLETED); // can't abort completed voting\r\n        \r\n        proposalToVote.state=State.ABORTED;\r\n        proposalToVote.outcome=Outcome.NONE;\r\n    }\r\n\r\n\r\n    // voting period expired : calculate the outcome\r\n    // ~~~~~~~~~~~~~~~~~~~~~~~~~~~~~~~~~~~~~~~~~~~~~~~~~~~~~~~~~~~~~\r\n    function expired() public {\r\n        if (proposalToVote.yesVotes==0 && proposalToVote.noVotes==0){\r\n            // nobody voted, so considered aborted\r\n            proposalToVote.state = State.ABORTED;\r\n            proposalToVote.outcome = Outcome.DEFEATED;\r\n        }\r\n        else if (proposalToVote.yesVotes/proposalToVote.totalVotes*100>proposalToVote.quorum){\r\n                  // We have positive outcome, resolution is passed\r\n                  // quorum is in %\r\n                  proposalToVote.state = State.COMPLETED;\r\n                  proposalToVote.outcome = Outcome.PASSED;\r\n        }\r\n        else {\r\n            // negative outcome, proposal defeated\r\n            proposalToVote.state = State.COMPLETED;\r\n            proposalToVote.outcome = Outcome.DEFEATED;\r\n        }\r\n    }\r\n\r\n\r\n    // voter cast his/her vote\r\n    // ~~~~~~~~~~~~~~~~~~~~~~~~\r\n    function newVote(\r\n        bool accept\t// True to accept, False to reject\r\n        ) public payable returns(bool) {\r\n\r\n        // voter must be valid and not voted before and have >0 shares\r\n        require(getShares(msg.sender)>0);\r\n        \r\n        // voter must have registered before, and have never voted before\r\n        require(acceptVote(msg.sender));\r\n        \r\n        // Must be in READY state to vote\r\n        require(proposalToVote.state==State.READY);\r\n        \r\n        bool result=false;\r\n        \r\n        if (accept){// (this) voter voted YES, 1 share = 1 vote\r\n              proposalToVote.yesVotes+=getShares(msg.sender);\r\n              result=true;\r\n        }\r\n        else {// this voter voted NO\r\n            proposalToVote.noVotes+=getShares(msg.sender);\r\n            result=true;\r\n        }\r\n\r\n        if (100*(proposalToVote.yesVotes/proposalToVote.totalVotes)>=proposalToVote.quorum){\r\n              // Minimum YES votes (qourum) achieved //\r\n              proposalToVote.outcome = Outcome.PASSED;\r\n              \r\n        }\r\n        else {\r\n             proposalToVote.outcome = Outcome.DEFEATED;\r\n        }\r\n      }\r\n        \r\n \r\n    }\r\n\r\n\r\n\r\n",
  "sourcePath": "C:/YongXian/SMUBlockchainTeam1/contracts/Voting.sol",
  "compiler": {
    "name": "solc",
    "version": "0.5.1+commit.c8a2cb62.Emscripten.clang"
  },
  "schemaVersion": "3.0.9",
  "updatedAt": "2019-05-28T15:23:48.376Z",
  "devdoc": {
    "methods": {}
  },
  "userdoc": {
    "methods": {}
  }
}